:020000040000FA
:04000000CEEF14F03B
:10060000003F065B4F666D7D077F6F777C395E79B3
:1006100071554C445253584142597300000E6F6E4D
:10062000000E706E000E716E000E726E000E746E13
:10063000100E736EFFEC10F010EC13F08AEC13F058
:100640000BEC14F0DCEC14F0F6EC14F0270E026E58
:10065000100E016E9FEC14F0EFEC0DF0000E026E28
:10066000000E016E3BEC13F001C06DF002C06EF0A5
:10067000BEEF06F0020E6F26000E7022712272226B
:10068000000E106E000E0F6E000E126E000E116E38
:10069000EEEC13F0180E126E000E136E000E146EB8
:1006A000000E156E400E056E7E0E066E050E076E70
:1006B000000E086E6FC001F070C002F071C003F050
:1006C00072C004F0B1EC11F001C00EF002C00FF0E6
:1006D00003C010F004C011F003EC12F00EC053F090
:1006E0000FC054F010C055F011C056F053C001F0C7
:1006F00054C002F055C003F056C004F00A0E056E57
:10070000000E066E000E076E000E086EB1EC11F0C2
:1007100001C05DF002C05EF0180E126E000E136E86
:10072000000E146E000E156E400E056E7E0E066EE7
:10073000050E076E000E086E6FC001F070C002F06B
:1007400071C003F072C004F0B1EC11F001C00EF002
:1007500002C00FF003C010F004C011F003EC12F05F
:100760000EC069F00FC06AF010C06BF011C06CF0E1
:1007700069C00EF06AC00FF06BC010F06CC011F0D1
:100780000A0E126E000E136E000E146E000E156E21
:1007900003EC12F00EC05BF00FC05CF0060E126EA0
:1007A000000E136E000E146E000E156E600E056EB8
:1007B000EA0E066E000E076E000E086E6FC001F0A6
:1007C00070C002F071C003F072C004F0B1EC11F01F
:1007D00001C00EF002C00FF003C010F004C011F011
:1007E00003EC12F00EC069F00FC06AF010C06BF09D
:1007F00011C06CF069C00EF06AC00FF06BC010F051
:100800006CC011F00A0E126E000E136E000E146E04
:10081000000E156E03EC12F00EC059F00FC05AF026
:100820000A0E126E000E136E000E146E000E156E80
:10083000700E056E170E066E000E076E000E086E27
:100840006FC001F070C002F071C003F072C004F01C
:10085000B1EC11F001C00EF002C00FF003C010F0B7
:1008600004C011F003EC12F00EC069F00FC06AF082
:1008700010C06BF011C06CF069C00EF06AC00FF0D0
:100880006BC010F06CC011F00A0E126E000E136EE9
:10089000000E146E000E156E03EC12F00EC057F031
:1008A0000FC058F05D50300FBFEC14F05B50300FAC
:1008B000BFEC14F03A0EBFEC14F05950300FBFECFF
:1008C00014F05750300FBFEC14F03A0EBFEC14F098
:1008D000E80E056E030E066E000E076E000E086E23
:1008E0006FC001F070C002F071C003F072C004F07C
:1008F000B1EC11F001C00EF002C00FF003C010F017
:1009000004C011F0060E126E000E136E000E146E6F
:10091000000E156E03EC12F00E50300FBFEC14F009
:10092000640E056E000E066E000E076E000E086E59
:100930006FC001F070C002F071C003F072C004F02B
:10094000B1EC11F001C00EF002C00FF003C010F0C6
:1009500004C011F00A0E126E000E136E000E146E1B
:10096000000E156E03EC12F00E50300FBFEC14F0B9
:10097000000E106E010E0F6E000E126E000E116E44
:10098000EEEC13F06750300FBFEC14F06550300FF1
:10099000BFEC14F03A0EBFEC14F06350300FBFEC14
:1009A00014F06150300FBFEC14F0EFEC0DF0010EBD
:1009B0005F6EDFEF06F05AEC0FF0020E5F6EDFEFB6
:1009C00006F0F1EC14F07350011809E174500218AC
:1009D000D8B4EDEF04F0EFEF04F055EF05F0F1ECD3
:1009E00014F001C073F002C074F073A0FAEF04F0C9
:1009F000FCEF04F004EF05F0400E6F267E0E70222F
:100A0000050E7122000E722273A409EF05F00BEFA0
:100A100005F013EF05F0400E6F5E7E0E705A050E66
:100A2000715A000E725A74A218EF05F01AEF05F011
:100A300022EF05F0700E6F26170E7022000E712245
:100A4000000E722273A827EF05F029EF05F031EFB1
:100A500005F0700E6F5E170E705A000E715A000E80
:100A6000725A73AA36EF05F038EF05F03EEF05F045
:100A7000640E6F26000E70227122722273AE43EF55
:100A800005F045EF05F04BEF05F0640E6F5E000ECC
:100A9000705A715A725A73A650EF05F052EF05F072
:100AA00055EF05F0000E81EC12F0030E5F6EEFECD7
:100AB0000DF0DFEF06F0000E016E6750E4EC12F06F
:100AC000010E016E6550E4EC12F0020E016E6350EF
:100AD000E4EC12F0030E016E6150E4EC12F0000E33
:100AE0005F6E000E606E000E2C6E000E2D6E800E7E
:100AF0002E6E3F0E2F6E330E136E330E146EB30E2A
:100B0000156E3F0E166E6DC001F06EC002F0036AE6
:100B1000046A000E15EC0DF001C00FF002C010F0D9
:100B200003C011F004C012F0E5EC06F00FC028F08D
:100B300010C029F011C02AF012C02BF0FAEC08F016
:100B400028C041F029C042F02AC043F02BC044F035
:100B50007CEC10F041C04BF042C04CF0000E4E6EE9
:100B60000A0E4D6E59EC11F04BC061F04CC062F0B2
:100B7000000E2C6E000E2D6E200E2E6E410E2F6E6E
:100B8000330E136E330E146EB30E156E3F0E166ECB
:100B90006DC001F06EC002F0036A046A000E15EC2D
:100BA0000DF001C00FF002C010F003C011F004C03E
:100BB00012F0E5EC06F00FC028F010C029F011C0CB
:100BC0002AF012C02BF0FAEC08F028C041F029C03E
:100BD00042F02AC043F02BC044F07CEC10F041C03E
:100BE0004BF042C04CF0000E4E6E060E4D6E59ECAE
:100BF00011F04BC063F04CC064F0000E2C6E000E80
:100C00002D6E700E2E6E420E2F6E330E136E330E3F
:100C1000146EB30E156E3F0E166E6DC001F06EC0F1
:100C200002F0036A046A000E15EC0DF001C00FF02B
:100C300002C010F003C011F004C012F0E5EC06F0A1
:100C40000FC028F010C029F011C02AF012C02BF0FC
:100C5000FAEC08F028C041F029C042F02AC043F065
:100C60002BC044F07CEC10F041C04BF042C04CF083
:100C7000000E4E6E0A0E4D6E59EC11F04BC065F031
:100C80004CC066F0000E2C6E000E2D6E160E2E6EF1
:100C9000440E2F6E330E136E330E146EB30E156E9C
:100CA0003F0E166E6DC001F06EC002F0036A046A5A
:100CB000000E15EC0DF001C00FF002C010F003C0E3
:100CC00011F004C012F0E5EC06F00FC028F010C0DF
:100CD00029F011C02AF012C02BF0FAEC08F028C05D
:100CE00041F029C042F02AC043F02BC044F07CEC14
:100CF00010F041C04BF042C04CF0000E4E6E060E9C
:100D00004D6E59EC11F04BC067F04CC068F061506B
:100D1000571807E162505818D8A491EF06F093EFE6
:100D200006F0BAEF06F06350591807E164505A18FC
:100D3000D8A49DEF06F09FEF06F0BAEF06F06550DD
:100D40005B1807E166505C18D8A4A9EF06F0ABEF7A
:100D500006F0BAEF06F067505D1807E168505E18BC
:100D6000D8A4B5EF06F0B7EF06F0BAEF06F0640EC0
:100D700081EC12F0000E5F6EDFEF06F05F50516EF7
:100D8000526A5250000AD8B4C8EF06F0BAEF06F023
:100D90005150000AD8B43AEF03F0010AD8B4DBEF9F
:100DA00004F0030AD8B4E1EF04F0010AD8B45BEF11
:100DB00005F0070AD8B473EF05F0BAEF06F0E9ECD6
:100DC00014F026EF03F000EF00F01250800B1B6EC2
:100DD00012501224216E11AEF0EF06F0F2EF06F081
:100DE000F3EF06F021802150D8B4F9EF06F0FBEFC5
:100DF00006F00EEF07F02128D8A401EF07F003EF6B
:100E000007F00BEF07F0000E0F6E000E106E000ED5
:100E1000116E000E126E118E16EF07F0000E0F6E9F
:100E2000000E106E000E116E000E126E1650800B2A
:100E30001B1A16501624206E15AE21EF07F023EF73
:100E400007F024EF07F020802050D8B42AEF07F0F5
:100E50002CEF07F03FEF07F02028D8A432EF07F07F
:100E600034EF07F03CEF07F0000E136E000E146E27
:100E7000000E156E000E166E158E47EF07F0000E71
:100E8000136E000E146E000E156E000E166E2050BE
:100E9000D8B44DEF07F04FEF07F057EF07F02150B0
:100EA000D8A455EF07F057EF07F061EF07F0000EF9
:100EB0000F6E000E106E000E116E000E126EF9EF26
:100EC00008F015500F02F3CF26F0F4CF27F026508C
:100ED0001C6E1D6A1E6A1F6A2750226E236A246ACE
:100EE000256A14501002F3CF26F0F4CF27F02650D5
:100EF0001C26000E1D221E221F2227502226000E15
:100F000023222422252213501102F3CF26F0F4CFFE
:100F100027F026501C26000E1D221E221F222750BD
:100F20002226000E2322242225221EC01FF01DC0CF
:100F30001EF01CC01DF01C6A13501002F3CF26F0E7
:100F4000F4CF27F026501C2627501D22000E1E220B
:100F5000000E1F2214500F02F3CF26F0F4CF27F01B
:100F600026501C2627501D22000E1E22000E1F2276
:100F70001EC01FF01DC01EF01CC01DF01C6A1350C7
:100F80000F02F3CF26F0F4CF27F026501C2627506F
:100F90001D22000E1E22000E1F2215501002F3CF3C
:100FA00026F0F4CF27F02650222627502322000EC9
:100FB0002422000E252214501102F3CF26F0F4CF84
:100FC00027F02650222627502322000E2422000E2E
:100FD000252215501102F3CF26F0F4CF27F026502A
:100FE000176E2750186E196A1A6A19C01AF018C0BD
:100FF00019F017C018F0176A17502226185023222C
:10100000195024221A5025221CC017F01DC018F0B8
:101010001EC019F01FC01AF0190E14EF08F0D89076
:101020001A32193218321732E82E0FEF08F0175023
:10103000222618502322195024221A5025221EC07D
:101040001FF01DC01EF01CC01DF01C6A205021C0E6
:1010500017F0186A1726000E1822820E1724266E23
:10106000FF0E1820276E4AEF08F0D890223623365C
:10107000243625361FAE3FEF08F041EF08F042EF6F
:1010800008F02280D8901C361D361E361F362606E4
:10109000D8A0270624AE4FEF08F051EF08F035EF47
:1010A00008F0000E206E1FAE58EF08F05AEF08F05F
:1010B0007EEF08F0FF0E1C14176EFF0E1D14186E45
:1010C000FF0E1E14196E7F0E1F141A6E1750181083
:1010D00019101A10D8B46FEF08F071EF08F075EF1F
:1010E00008F0010E206E7EEF08F022A07AEF08F0E3
:1010F0007CEF08F07EEF08F071EF08F02050D8B4D4
:1011000084EF08F086EF08F0AAEF08F0010E22261F
:10111000000E23222422252225A091EF08F093EF30
:1011200008F0AAEF08F022C017F023C018F024C07E
:1011300019F025C01AF01A341A321932183217323F
:1011400017C022F018C023F019C024F01AC025F0EF
:10115000264A272A27BEB5EF08F0275008E126289F
:10116000D8A0B5EF08F0B7EF08F0C1EF08F0000E17
:10117000226E000E236E800E246E7F0E256EEFEF22
:1011800008F027BECEEF08F0275006E12604D8B0BD
:10119000CCEF08F0CEEF08F0DAEF08F0000E226E88
:1011A000000E236E000E246E000E256E000E1B6EC8
:1011B000EFEF08F026C021F0FF0E2216FF0E2316D7
:1011C0007F0E2416000E251621A0E9EF08F0EBEFA4
:1011D00008F0ECEF08F0248ED8902130256E1B50DB
:1011E000251222C00FF023C010F024C011F025C03A
:1011F00012F012002B50800B386E2B502B243F6EB8
:101200002AAE05EF09F007EF09F008EF09F03F807B
:101210003F50D8B40EEF09F010EF09F025EF09F0B8
:101220003F28D8A416EF09F018EF09F020EF09F0D5
:10123000000E286E000E296E000E2A6E000E2B6E18
:101240002A8E000E2B6E2DEF09F0000E286E000E78
:10125000296E000E2A6E000E2B6E2F50800B381A4E
:101260002F502F24406E2EAE38EF09F03AEF09F0E0
:101270003BEF09F040804050D8B441EF09F043EF14
:1012800009F058EF09F04028D8A449EF09F04BEFD6
:1012900009F053EF09F0000E2C6E000E2D6E000EBB
:1012A0002E6E000E2F6E2E8E000E2F6E60EF09F048
:1012B000000E2C6E000E2D6E000E2E6E000E2F6E88
:1012C0002C502D102E102F10D8A469EF09F06BEFC1
:1012D00009F083EF09F0000E286E000E296E000E53
:1012E0002A6E000E2B6E800E2A127F0E2B123850A3
:1012F0002B1228C028F029C029F02AC02AF02BC0C0
:101300002BF0C6EF0AF03F50D8A489EF09F08BEF1D
:1013100009F095EF09F0000E286E000E296E000E00
:101320002A6E000E2B6EC6EF0AF040503FC030F020
:10133000316A305E000E315A7F0E3024396E000E55
:1013400031203A6E28C034F029C035F02AC036F07A
:101350002BC037F0000E286E000E296E000E2A6E8C
:10136000000E2B6E000E3B6E000E3C6E000E3D6EAE
:10137000000E3E6E000E406EF6EF09F04050D8B4FD
:10138000C4EF09F0C6EF09F0DDEF09F0D89034366C
:10139000353636363736D890283629362A362B3623
:1013A0003EAED5EF09F0D7EF09F0D8EF09F028806D
:1013B000D8903B363C363D363E362C50345C2D5072
:1013C00035582E5036582F503758D8A0EAEF09F02C
:1013D000ECEF09F0F5EF09F03E8C2C50345E2D5007
:1013E000355A2E50365A2F50375A402A190E40641B
:1013F000FCEF09F0FEEF09F0BEEF09F034503510B4
:1014000036103710D8B407EF0AF009EF0AF021EFD1
:101410000AF03B8021EF0AF0D890283629362A3688
:101420002B363EAE16EF0AF018EF0AF019EF0AF06D
:101430002880D8903B363C363D363E363906D8A01B
:101440003A062AAE26EF0AF028EF0AF00CEF0AF06F
:10145000000E406E3EAE2FEF0AF031EF0AF055EF6E
:101460000AF0FF0E3B14306EFF0E3C14316EFF0E7F
:101470003D14326E7F0E3E14336E305031103210F8
:101480003310D8B446EF0AF048EF0AF04CEF0AF0F8
:10149000010E406E55EF0AF028A051EF0AF053EF0D
:1014A0000AF055EF0AF048EF0AF04050D8B45BEF6D
:1014B0000AF05DEF0AF081EF0AF0010E2826000E17
:1014C00029222A222B222BA068EF0AF06AEF0AF0C9
:1014D00081EF0AF028C030F029C031F02AC032F084
:1014E0002BC033F03334333232323132303230C009
:1014F00028F031C029F032C02AF033C02BF0394A2D
:101500003A2A3ABE8CEF0AF03A5008E13928D8A0BE
:101510008CEF0AF08EEF0AF099EF0AF0000E3A6EA7
:101520003968000E286E000E296E000E2A6E000E1D
:101530002B6E3ABEA6EF0AF03A5006E13904D8B055
:10154000A4EF0AF0A6EF0AF0B4EF0AF0000E3A6E2C
:10155000000E396E000E286E000E296E000E2A6EE7
:10156000000E2B6E000E386E39C03FF03FA0BBEF6F
:101570000AF0BDEF0AF0C0EF0AF02A8EC1EF0AF0C0
:101580002A9ED8903F302B6E77EF09F0120002BEF2
:10159000D5EF0AF0025007E1080E015CD8B0D3EF96
:1015A0000AF0D5EF0AF0FFEF0AF003500410D8B4A8
:1015B000DCEF0AF0DEEF0AF0EEEF0AF001C005F012
:1015C000010E066E052AE7EF0AF0D8900636052EC2
:1015D000E5EF0AF006508012EDEF0BF001C005F0C8
:1015E000010E066E052AF7EF0AF0D8900636052E92
:1015F000F5EF0AF00650FF0A8016EDEF0BF002BE81
:101600000DEF0BF0025007E1100E015CD8B00BEFAC
:101610000BF00DEF0BF03BEF0BF0F80E0126FF0E79
:10162000022203500410D8B418EF0BF01AEF0BF09D
:101630002AEF0BF001C005F0010E066E052A23EF1C
:101640000BF0D8900636052E21EF0BF006508112D4
:10165000EDEF0BF001C005F0010E066E052A33EF29
:101660000BF0D8900636052E31EF0BF00650FF0A2E
:101670008116EDEF0BF002BE49EF0BF0025007E1CF
:10168000180E015CD8B047EF0BF049EF0BF077EF85
:101690000BF0F00E0126FF0E022203500410D8B406
:1016A00054EF0BF056EF0BF066EF0BF001C005F0B6
:1016B000010E066E052A5FEF0BF0D8900636052E58
:1016C0005DEF0BF006508212EDEF0BF001C005F05C
:1016D000010E066E052A6FEF0BF0D8900636052E28
:1016E0006DEF0BF00650FF0A8216EDEF0BF002BE15
:1016F00085EF0BF0025007E1200E015CD8B083EFBC
:101700000BF085EF0BF0B3EF0BF0E80E0126FF0EA8
:10171000022203500410D8B490EF0BF092EF0BF0BC
:10172000A2EF0BF001C005F0010E066E052A9BEF3B
:101730000BF0D8900636052E99EF0BF00650831269
:10174000EDEF0BF001C005F0010E066E052AABEFC0
:101750000BF0D8900636052EA9EF0BF00650FF0AC5
:101760008316EDEF0BF002BEC1EF0BF0025007E164
:10177000280E015CD8B0BFEF0BF0C1EF0BF0EDEF1E
:101780000BF0E00E0126FF0E022203500410D8B425
:10179000CCEF0BF0CEEF0BF0DEEF0BF001C005F05D
:1017A000010E066E052AD7EF0BF0D8900636052EEF
:1017B000D5EF0BF006508412EDEF0BF001C005F0F1
:1017C000010E066E052AE7EF0BF0D8900636052EBF
:1017D000E5EF0BF00650FF0A8416120002BEFCEF84
:1017E0000BF0025007E1080E015CD8B0FAEF0BF0E5
:1017F000FCEF0BF026EF0CF003500410D8B403EF0D
:101800000CF005EF0CF015EF0CF001C005F0010E27
:10181000066E052A0EEF0CF0D8900636052E0CEF5A
:101820000CF00650921214EF0DF001C005F0010EFD
:10183000066E052A1EEF0CF0D8900636052E1CEF1A
:101840000CF00650FF0A921614EF0DF002BE34EFB2
:101850000CF0025007E1100E015CD8B032EF0CF032
:1018600034EF0CF062EF0CF003500410D8B43BEFEF
:101870000CF03DEF0CF04FEF0CF001C005F0F80E4E
:101880000526010E066E052A48EF0CF0D8900636A4
:10189000052E46EF0CF00650931214EF0DF001C028
:1018A00005F0F80E0526010E066E052A5AEF0CF01B
:1018B000D8900636052E58EF0CF00650FF0A931606
:1018C00014EF0DF002BE70EF0CF0025007E1180E9D
:1018D000015CD8B06EEF0CF070EF0CF09EEF0CF0E6
:1018E00003500410D8B477EF0CF079EF0CF08BEFC5
:1018F0000CF001C005F0F00E0526010E066E052A5B
:1019000084EF0CF0D8900636052E82EF0CF00650CE
:10191000941214EF0DF001C005F0F00E0526010E33
:10192000066E052A96EF0CF0D8900636052E94EF39
:101930000CF00650FF0A941614EF0DF002BEACEF47
:101940000CF0025007E1200E015CD8B0AAEF0CF0B9
:10195000ACEF0CF0DAEF0CF003500410D8B4B3EF96
:101960000CF0B5EF0CF0C7EF0CF001C005F0E80E7D
:101970000526010E066E052AC0EF0CF0D89006363B
:10198000052EBEEF0CF00650951214EF0DF001C0BD
:1019900005F0E80E0526010E066E052AD2EF0CF0C2
:1019A000D8900636052ED0EF0CF00650FF0A95169B
:1019B00014EF0DF002BEE8EF0CF0025007E1280E24
:1019C000015CD8B0E6EF0CF0E8EF0CF014EF0DF08E
:1019D00003500410D8B4EFEF0CF0F1EF0CF003EF6C
:1019E0000DF001C005F0E00E0526010E066E052A79
:1019F000FCEF0CF0D8900636052EFAEF0CF00650EE
:101A0000961214EF0DF001C005F0E00E0526010E50
:101A1000066E052A0EEF0DF0D8900636052E0CEF57
:101A20000DF00650FF0A96161200096E0950D8B440
:101A30001CEF0DF01EEF0DF040EF0DF004BE25EF92
:101A40000DF023EF0DF040EF0DF001C005F002C0E6
:101A500006F003C007F004C008F0051E061E071EAE
:101A6000081E052A000E06220722082205C00BF0D8
:101A700006C00CF007C00DF008C00EF048EF0DF0E6
:101A800001C00BF002C00CF003C00DF004C00EF05A
:101A90000150021003100410D8A451EF0DF053EFC1
:101AA0000DF05DEF0DF0000E016E000E026E000EE7
:101AB000036E000E046EEEEF0DF0960E0A6E67EFE9
:101AC0000DF00A2AD8900E320D320C320B32000E75
:101AD0000B14056E000E0C14066E000E0D14076E2E
:101AE000FE0E0E14086E0550061007100810D8A43C
:101AF0007CEF0DF07EEF0DF061EF0DF08CEF0DF04F
:101B00000A2A010E0B26000E0C220D220E22D8905E
:101B10000E320D320C320B32000E0B14056E000E1D
:101B20000C14066E000E0D14076EFF0E0E14086ED8
:101B30000550061007100810D8A4A1EF0DF0A3EF70
:101B40000DF080EF0DF0ABEF0DF00A06D8900B36DC
:101B50000C360D360E360DBEB0EF0DF0B2EF0DF0B7
:101B6000BAEF0DF0020E0A60B8EF0DF0BAEF0DF00B
:101B7000A5EF0DF00AB0BFEF0DF0C1EF0DF0C2EF11
:101B80000DF00D9ED8900A320AC005F0066A076A69
:101B9000086A05C008F0076A066A056A05500B1254
:101BA00006500C1207500D1208500E120950D8B4EE
:101BB000DCEF0DF0DEEF0DF0E6EF0DF004BEE5EF2B
:101BC0000DF0E3EF0DF0E6EF0DF00E8E0BC001F01F
:101BD0000CC002F00DC003F00EC004F01200000EA5
:101BE000026E180E016E000E046E000E036EC7EC3E
:101BF0000AF0000E026E190E016E000E046E000E49
:101C0000036EC7EC0AF0000E026E1A0E016E000E93
:101C1000046E000E036EC7EC0AF0000E026E1B0E7F
:101C2000016E000E046E000E036EC7EC0AF0000E8B
:101C3000086E000E076E63EC13F087EF0EF0010ED6
:101C40007C24F66EF76A060EF7220800F550076E40
:101C5000086A63EC13F0000E026E180E016E000E9F
:101C6000046E010E036EC7EC0AF0010E7D6EA4EF48
:101C70000EF0010E7B24F66EF76A060EF7220800BE
:101C8000F550076E086A63EC13F0000E026E190E31
:101C9000016E000E046E010E036EC7EC0AF0020E18
:101CA0007D6EA4EF0EF0010E7A24F66EF76A060E32
:101CB000F7220800F550076E086A63EC13F0000E77
:101CC000026E1A0E016E000E046E010E036EC7EC5A
:101CD0000AF0030E7D6EA4EF0EF0010E7924F66E6D
:101CE000F76A060EF7220800F550076E086A63ECE3
:101CF00013F0000E026E1B0E016E000E046E010E3C
:101D0000036EC7EC0AF0000E7D6EA4EF0EF07D505E
:101D10000A6E0B6A0B50000AD8B491EF0EF083EFF5
:101D20000EF00A50000AD8B41FEF0EF0010AD8B422
:101D300039EF0EF0030AD8B453EF0EF0010AD8B40D
:101D40006DEF0EF083EF0EF0120002BEB3EF0EF057
:101D5000025007E1080E015CD8B0B1EF0EF0B3EF0E
:101D60000EF0C7EF0EF001C003F0010E046E032A5F
:101D7000BCEF0EF0D8900436032EBAEF0EF00450EC
:101D80008014056E0550016E026A59EF0FF002BE15
:101D9000D5EF0EF0025007E1100E015CD8B0D3EF82
:101DA0000EF0D5EF0EF0EBEF0EF001C003F0F80EE1
:101DB0000326010E046E032AE0EF0EF0D8900436DD
:101DC000032EDEEF0EF004508114056E0550016EF7
:101DD000026A59EF0FF002BEF9EF0EF0025007E170
:101DE000180E015CD8B0F7EF0EF0F9EF0EF00FEF20
:101DF0000FF001C003F0F00E0326010E046E032A5B
:101E000004EF0FF0D8900436032E02EF0FF00450C9
:101E10008214056E0550016E026A59EF0FF002BE82
:101E20001DEF0FF0025007E1200E015CD8B01BEF50
:101E30000FF01DEF0FF033EF0FF001C003F0E80ECD
:101E40000326010E046E032A28EF0FF0D890043603
:101E5000032E26EF0FF004508314056E0550016E1B
:101E6000026A59EF0FF002BE41EF0FF0025007E196
:101E7000280E015CD8B03FEF0FF041EF0FF057EFA5
:101E80000FF001C003F0E00E0326010E046E032ADA
:101E90004CEF0FF0D8900436032E4AEF0FF00450A9
:101EA0008414056E0550016E026A59EF0FF0016847
:101EB00002681200000E766E000E756E000E0E6E39
:101EC000000E0D6E0EBE6EEF0FF00E5009E1050E06
:101ED0000D5CD8A06EEF0FF070EF0FF072EF0FF007
:101EE000D3EF0FF00DC00AF0030E0A26010E0B6EA1
:101EF000000E0C6E0A2A80EF0FF0D8900B360C36CD
:101F00000A2E7DEF0FF00BC007F00CC008F063EC59
:101F100013F0000E026E0A0E016EA5EC0EF00150D9
:101F20000210D8B496EF0FF098EF0FF0ABEF0FF070
:101F30000DC00AF0010E0B6E000E0C6E0A2AA4EF03
:101F40000FF0D8900B360C360A2EA1EF0FF00B5085
:101F500075120C507612000E026E090E016EA5EC81
:101F60000EF001500210D8B4B8EF0FF0BAEF0FF036
:101F7000CFEF0FF00DC00AF0050E0A26010E0B6E12
:101F8000000E0C6E0A2AC8EF0FF0D8900B360C36F4
:101F90000A2EC5EF0FF00B5075120C5076120D4A39
:101FA0000E2A62EF0FF075500001801907E176509C
:101FB0008119D8A4DEEF0FF0E0EF0FF0E3EF0FF0A0
:101FC0007E06E9EF0FF0010E7E6E75C080F076C0E0
:101FD00081F07E50D8A4EFEF0FF0F1EF0FF0F5EFA6
:101FE0000FF080C077F081C078F01200000E0A6E0A
:101FF00008BEFFEF0FF0FDEF0FF009EF10F0081E25
:10200000071E061E056C000E062207220822010E7E
:102010000A6E04BE10EF10F00EEF10F01AEF10F081
:10202000041E031E021E016C000E02220322042263
:10203000010E0A1A000E0B6E000E0C6E000E0D6ED5
:10204000000E0E6E0550061007100810D8B42BEFC6
:1020500010F02DEF10F063EF10F0010E096E37EF66
:1020600010F0D8900536063607360836092A08AE2D
:102070003CEF10F03EEF10F031EF10F0D8900B363F
:102080000C360D360E360550015C065002580750CE
:10209000035808500458D8A050EF10F052EF10F039
:1020A0005BEF10F00550015E0650025A0750035ACC
:1020B0000850045A0B80D890083207320632053295
:1020C000092E3EEF10F00A50D8B469EF10F06BEF14
:1020D00010F073EF10F00E1E0D1E0C1E0B6C000E98
:1020E0000C220D220E220BC001F00CC002F00DC01C
:1020F00003F00EC004F01200433444344A6E4A50D8
:10210000D8A485EF10F087EF10F091EF10F0000EDB
:10211000416E000E426E000E436E000E446EFEEFE6
:1021200010F041C045F042C046F043C047F044C003
:1021300048F0200EA1EF10F0D890483247324632D6
:102140004532E82E9CEF10F04550496E438EFF0E4D
:102150004116FF0E4216FF0E4316000E4416960E51
:102160004A5E4ABEB8EF10F0B6EF10F0CEEF10F0B6
:102170004A50800A970FD8B0C0EF10F0C2EF10F0AD
:10218000C4EF10F087EF10F0D8904432433242325F
:1021900041324A3EC4EF10F0E6EF10F01F0E4A64E1
:1021A000D4EF10F0D6EF10F0DEEF10F087EF10F064
:1021B000D89041364236433644364A064A50D8A46F
:1021C000E4EF10F0E6EF10F0D8EF10F04950D8B47B
:1021D000ECEF10F0EEEF10F0F6EF10F0441E431E9F
:1021E000421E416C000E42224322442241C041F073
:1021F00042C042F043C043F044C044F01200000E1D
:10220000026E1C0E016E000E046E000E036EEEECEC
:102210000BF0000E026E1D0E016E000E046E000E1D
:10222000036EEEEC0BF0CFEC13F0000E026E0F0E0F
:10223000016E24EC14F0000E0B6E000E0A6E030EFD
:102240008CEC14F0000E026E050E016E24EC14F0FE
:10225000000E0B6E000E0A6E030E8CEC14F0000ED6
:10226000026EA00E016EFAEC14F0000E0B6E000E62
:102270000A6E030E8CEC14F0000E026EA00E016EBE
:10228000FAEC14F0000E0B6E000E0A6E020E8CECCF
:1022900014F0000E026E0A0E016E24EC14F0280EEB
:1022A000B0EC14F00C0EB0EC14F0010EB0EC14F025
:1022B0001200000E506E4CBE62EF11F060EF11F094
:1022C00068EF11F04B6C4C1ED8B04C2A010E506ECA
:1022D0004EBE6FEF11F06DEF11F073EF11F04D6C1A
:1022E0004E1ED8B04E2A4D504E10D8B47AEF11F091
:1022F0007CEF11F0A0EF11F0010E4F6E84EF11F0A2
:10230000D8904D364E364F2A4EAE89EF11F08BEFF6
:1023100011F080EF11F04D504B5C4E504C58D8A04E
:1023200094EF11F096EF11F09AEF11F04D504B5ED3
:102330004E504C5AD8904E324D324F2E8BEF11F0FA
:102340005050D8B4A6EF11F0A8EF11F0ACEF11F097
:102350004B6C4C1ED8B04C2A4BC04BF04CC04CF0D0
:102360001200000E096E000E0A6E000E0B6E000EBB
:102370000C6E0550061007100810D8B4C2EF11F00B
:10238000C4EF11F0FAEF11F0010E0D6ECEEF11F067
:10239000D89005360636073608360D2A08AED3EF34
:1023A00011F0D5EF11F0C8EF11F0D89009360A36C8
:1023B0000B360C360550015C065002580750035886
:1023C00008500458D8A0E7EF11F0E9EF11F0F2EF50
:1023D00011F00550015E0650025A0750035A08508A
:1023E000045A0980D89008320732063205320D2E81
:1023F000D5EF11F009C001F00AC002F00BC003F0E4
:102400000CC004F012001250131014101510D8B4A0
:102410000CEF12F00EEF12F03EEF12F0010E166EFE
:1024200018EF12F0D8901236133614361536162AD5
:1024300015AE1DEF12F01FEF12F012EF12F0125056
:102440000E5C13500F581450105815501158D8A046
:102450002CEF12F02EEF12F036EF12F012500E5E4B
:1024600013500F5A1450105A1550115AD890153253
:10247000143213321232162E1FEF12F00EC00EF06D
:102480000FC00FF010C010F011C011F01200000EBC
:10249000066E000E056E03500410D8B452EF12F011
:1024A00054EF12F07CEF12F0010E076E5CEF12F0A9
:1024B000D89003360436072A04AE61EF12F063EFBA
:1024C00012F058EF12F0D890053606360350015C32
:1024D00004500258D8A06FEF12F071EF12F076EFAF
:1024E00012F00350015E0450025A0580D890043265
:1024F0000332072E63EF12F005C001F006C002F0B0
:1025000012000A6E010ECB24016E026A000E022236
:102510000AC003F0046A66EC14F001C00BF002C0BC
:102520000CF00BC001F00CC002F0000E046E190E8E
:10253000036E47EC12F001C00BF002C00CF0FF0E6E
:102540000B16030E0C160BC008F00CC009F0D89047
:1025500009320832D890093208320850BB6E0BC0DD
:1025600008F0030E08160838F00BBA1212000D6EB0
:102570000DC00CF00C3A0F0E0C160C50076E086ACA
:1025800063EC13F0000E026E1D0E016E0AC003F024
:102590000BC004F0C7EC0AF0AEEC13F00DC00CF069
:1025A0000F0E0C160C50076E086A63EC13F0000E49
:1025B000026E1D0E016E0AC003F00BC004F0C7ECE2
:1025C0000AF0AEEC13F01200026E0150D8A4EBEF4B
:1025D00012F0EDEF12F0EFEF12F002C07CF0010408
:1025E000D8A4F5EF12F0F7EF12F0F9EF12F002C0F5
:1025F0007BF0020E0118D8A400EF13F002EF13F0E5
:1026000004EF13F002C07AF0030E0118D8A40BEF08
:1026100013F00DEF13F00FEF13F002C079F012007A
:10262000000E026E180E016E000E046E000E036E98
:10263000EEEC0BF0000E026E190E016E000E046E31
:10264000000E036EEEEC0BF0000E026E1A0E016E21
:10265000000E046E000E036EEEEC0BF0000E026E28
:102660001B0E016E000E046E000E036EEEEC0BF0FE
:10267000CFEC13F01200C30EC216025007E1030E96
:10268000015CD8B046EF13F048EF13F04CEF13F0B5
:102690000144E846FC0BC212C282C2B252EF13F0F0
:1026A00054EF13F04DEF13F0C4CF03F0046A03505E
:1026B000046E036AC3500326000E042203C001F017
:1026C00004C002F01200000E026E080E016E000E31
:1026D000046E000E036EC7EC0AF0000E096E000EC9
:1026E000026E1E0E016E800E0714036E046AC7ECA4
:1026F0000AF051EC14F0D89007360836092A070E74
:10270000096485EF13F087EF13F06FEF13F03CECE3
:1027100014F01200000E026E000E016E000E046E28
:10272000010E036EEEEC0BF0000E026E010E016E58
:10273000000E046E010E036EEEEC0BF0000E026E46
:10274000020E016E000E046E010E036EEEEC0BF035
:10275000C2800C0EC16EAA0EC06E1200000E026E78
:102760001C0E016E000E046E010E036EC7EC0AF023
:10277000000E026E050E016EFAEC14F0000E026EF1
:102780001C0E016E000E046E000E036EC7EC0AF004
:10279000000E026E050E016EFAEC14F01200000E2F
:1027A000026E1F0E016E000E046E000E036EEEEC44
:1027B0000BF0000E026E080E016E000E046E000E8D
:1027C000036EEEEC0BF0000E026E1E0E016E000E9C
:1027D000046E000E036EEEEC0BF012000F501010A2
:1027E000D8A4F5EF13F0F7EF13F0FCEF13F011504E
:1027F0000F0B800FB0EC14F00F041010D8A403EFEF
:1028000014F005EF14F00AEF14F011500F0BC00F85
:10281000B0EC14F01200CFEC13F0000E026E0A0EB2
:10282000016E000E046E010E036EEEEC0BF0000E56
:10283000026E090E016E000E046E010E036EEEECC8
:102840000BF00C0EC16E1200000E056E000E046E31
:102850002CEF14F0044A052A0150045C0550800A4C
:10286000036E0250800A0358D8A039EF14F03BEFF2
:1028700014F02AEF14F01200000E026E1F0E016E0B
:10288000000E046E010E036EC7EC0AF0000E026E1D
:102890001F0E016E000E046E000E036EC7EC0AF0F0
:1028A0001200000E026E080E016E000E046E010E84
:1028B000036EC7EC0AF0000E026E080E016E000EE9
:1028C000046E000E036EC7EC0AF012000150030202
:1028D000F3CF05F0F4CF06F001500402F3500626C2
:1028E00002500302F350062605C001F006C002F0B4
:1028F0001200480E016EE80E026E010E036E000E0D
:10290000046E0FC005F010C006F0076A086AF6EC06
:102910000FF00104CB6E12000C6E0CC007F0086AB9
:1029200063EC13F0000E026E1D0E016E0AC003F080
:102930000BC004F0C7EC0AF0AEEC13F01200D89014
:102940000134036E0234046E031E041E320E035E55
:10295000000E045A0450D76E03C0D6FFF294120042
:102960000E6E000E0B6E000E0A6E0E50B7EC12F0DB
:10297000000E026E020E016E24EC14F012000E6EB8
:10298000000E0B6E010E0A6E0E50B7EC12F0000E28
:10299000026E500E016EFAEC14F012000001816B11
:1029A000806B00EE75F00A0EEE6AE806FDE1000E9F
:1029B000F86E00010EEF03F09492030ECA12CA845F
:1029C0000C0EBA6E000E106E640E0F6E79EC14F0E1
:1029D0001200F2A4EEEF14F0F0EF14F0E9EF14F0AF
:1029E000120077C001F078C002F01200080ED56E18
:0629F000D58E120012005A
:020000040020DA
:08000000FFFFFFFFFFFFFFFF00
:020000040030CA
:0E000000FF027100FF8380FF0FC00FE00F4072
:00000001FF
